:100000000C9434000C943E000C943E000C943E0082
:100010000C943E000C943E000C943E000C943E0068
:100020000C943E000C943E000C943E000C943E0058
:100030000C943E000C943E000C943E000C943E0048
:100040000C943E000C943E000C943E000C943E0038
:100050000C943E000C943E000C943E000C943E0028
:100060000C943E000C943E0011241FBECFEFD4E050
:10007000DEBFCDBF0E9487000C94D0010C9400001D
:1000800020E030E044E02817390714F44BB901C0F0
:100090001BB851E25A95F1F700002F5F3F4F24360D
:1000A000310589F708958F929F92AF92BF92CF92B8
:1000B000DF92EF92FF92BC01990F880B990B0E947F
:1000C000D7004B015C012DEC3CEC4CEC5DE30E9455
:1000D0003B016B017C012AE037ED43E25CE3C501A3
:1000E000B4010E943B01A70196010E943B01A701B8
:1000F00096010E943B010E949F00CB01FF90EF9070
:10010000DF90CF90BF90AF909F908F90089584E044
:100110008AB98BB9C0E0D0E0CE010E9453000E94A2
:1001200040002196C436D105B9F7C4E6D0E0CE012F
:100130000E9453000E9440002197C9F7EBCF0E9414
:10014000A6006894B1110C94350108950E941A011B
:1001500088F09F5798F0B92F9927B751B0F0E1F088
:10016000660F771F881F991F1AF0BA95C9F714C038
:10017000B13091F00E943401B1E008950C94340143
:10018000672F782F8827B85F39F0B93FCCF3869571
:1001900077956795B395D9F73EF4909580957095CE
:1001A00061957F4F8F4F9F4F0895E89409C097FB4B
:1001B0003EF490958095709561957F4F8F4F9F4F3E
:1001C0009923A9F0F92F96E9BB279395F695879582
:1001D00077956795B795F111F8CFFAF4BB0F11F445
:1001E00060FF1BC06F5F7F4F8F4F9F4F16C08823EC
:1001F00011F096E911C0772321F09EE8872F762F22
:1002000005C0662371F096E8862F70E060E02AF062
:100210009A95660F771F881FDAF7880F969587954E
:1002200097F9089557FD9058440F551F59F05F3FB7
:1002300071F04795880F97FB991F61F09F3F79F008
:1002400087950895121613061406551FF2CF46958A
:10025000F1DF08C0161617061806991FF1CF86950C
:100260007105610508940895E894BB2766277727F0
:10027000CB0197F908950E944E010C94BF010E9492
:10028000B10138F00E94B80120F0952311F00C94D0
:10029000A8010C94AE0111240C9435010E941201A6
:1002A00070F3959FC1F3950F50E0551F629FF001C9
:1002B000729FBB27F00DB11D639FAA27F00DB11DE2
:1002C000AA1F649F6627B00DA11D661F829F22276B
:1002D000B00DA11D621F739FB00DA11D621F839FF2
:1002E000A00D611D221F749F3327A00D611D231FC8
:1002F000849F600D211D822F762F6A2F11249F5716
:1003000050409AF0F1F088234AF0EE0FFF1FBB1F18
:10031000661F771F881F91505040A9F79E3F5105D7
:1003200080F00C94A8010C9435015F3FE4F3983EF3
:10033000D4F3869577956795B795F795E7959F5F81
:10034000C1F7FE2B880F911D9695879597F9089513
:1003500097F99F6780E870E060E008959FEF80EC78
:10036000089500240A94161617061806090608951B
:1003700000240A9412161306140605060895092E81
:100380000394000C11F4882352F0BB0F40F4BF2BF0
:1003900011F460FF04C06F5F7F4F8F4F9F4F089530
:0403A000F894FFCFFF
:00000001FF
