:100000000C9434000C9449000C9449000C94490061
:100010000C9449000C9449000C9449000C9449003C
:100020000C9449000C9449000C9449000C9449002C
:100030000C9449000C9449000C9449000C9449001C
:100040000C9449000C9449000C9449000C9449000C
:100050000C9449000C9449000C9449000C944900FC
:100060000C9449000C94490011241FBECFEFD4E03A
:10007000DEBFCDBF11E0A0E0B1E0E4E3F1E002C0FB
:1000800005900D92A830B107D9F70E944B000C944F
:1000900098000C94000084E08AB964E08091020129
:1000A000909103019923E4F080E090E02091060113
:1000B00030910701AC01421B530B2091000130919C
:1000C00001012417350714F06BB901C01BB80000FB
:1000D000019620910201309103012817390734F766
:1000E000809104019091050180FD0BC020910601D3
:1000F000309107012F5F3F4F309307012093060196
:100100000AC0209106013091070121503109309336
:100110000701209306012091060130910701232B4E
:1001200009F0BCCF02969093050180930401B6CFED
:04013000F894FFCF71
:080134000100E80301000100D5
:00000001FF
