S0110000536F6674626C696E6B2E7372656367
S11300000C9434000C9446000C9446000C94460066
S11300100C9446000C9446000C9446000C94460044
S11300200C9446000C9446000C9446000C94480032
S11300300C9453000C9446000C9482000C944600DB
S11300400C9446000C9446000C9446000C94460014
S11300500C9446000C9446000C9446000C94460004
S11300600C9446000C94460011241FBECFEFD4E03C
S1130070DEBFCDBF21E0A0E0B1E001C01D92A13000
S1130080B207E1F70E94DC000C9483020C94000098
S11300901F920F920FB60F9211245A9A0F900FBE0F
S11300A00F901F9018951F920F920FB60F92112464
S11300B05A980F900FBE0F901F90189580918A0048
S11300C090918B004091880050918900209100010B
S11300D0222319F0213059F010C0019641505109E2
S11300E08417950751F421E02093000106C001977D
S11300F08230910511F41092000190938B0080934B
S11301008A0008951F920F920FB60F9211242F9315
S11301103F934F935F936F937F938F939F93AF938B
S1130120BF93EF93FF930E945E00FF91EF91BF9105
S1130130AF919F918F917F916F915F914F913F917B
S11301402F910F900FBE0F901F901895E1E8F0E0EB
S1130150808189608083EFE6F0E08081866080831F
S113016084EF91E0909389008093880010928B0033
S113017010928A00089594B5926094BD95B59560E7
S113018095BD682F70E080E090E00E948A0126ED22
S11301903FEF49EF5EE30E94160220E030E040E8C2
S11301A05FE30E94EC000E94590167BDEEE6F0E0B7
S11301B08081826080830895789414B817B884E0AD
S11301C08AB98FEF85B988B98BEF8BB982E00E9429
S11301D0BB000E94A600FFCF5058BB27AA270E944D
S11301E004010C94DC010E94CE0138F00E94D50178
S11301F020F039F49F3F19F426F40C94CB010EF44B
S1130200E095E7FB0C94C501E92F0E94ED0158F33A
S1130210BA17620773078407950720F079F4A6F5E7
S11302200C940F020EF4E0950B2EBA2FA02D0B01A7
S1130230B90190010C01CA01A0011124FF27591B27
S113024099F0593F50F4503E68F11A16F040A22F2D
S1130250232F342F4427585FF3CF4695379527959E
S1130260A795F0405395C9F77EF41F16BA0B620B9D
S1130270730B840BBAF09150A1F0FF0FBB1F661FE4
S1130280771F881FC2F70EC0BA0F621F731F841F27
S113029048F4879577956795B795F7959E3F08F04D
S11302A0B0CF9395880F08F09927EE0F979587950F
S11302B008950E94F50188F09F5798F0B92F992767
S11302C0B751B0F0E1F0660F771F881F991F1AF03D
S11302D0BA95C9F714C0B13091F00E940F02B1E091
S11302E008950C940F02672F782F8827B85F39F090
S11302F0B93FCCF3869577956795B395D9F73EF4D6
S113030090958095709561957F4F8F4F9F4F08957D
S1130310E89409C097FB3EF490958095709561959B
S11303207F4F8F4F9F4F9923A9F0F92F96E9BB2751
S11303309395F695879577956795B795F111F8CFCD
S1130340FAF4BB0F11F460FF1BC06F5F7F4F8F4F38
S11303509F4F16C0882311F096E911C0772321F02E
S11303609EE8872F762F05C0662371F096E8862FC6
S113037070E060E02AF09A95660F771F881FDAF71D
S1130380880F9695879597F9089597F99F6780E860
S113039070E060E008959FEF80EC089500240A94D3
S11303A01616170618060906089500240A9412164C
S11303B01306140605060895092E0394000C11F47F
S11303C0882352F0BB0F40F4BF2B11F460FF04C02C
S11303D06F5F7F4F8F4F9F4F089557FD9058440F85
S11303E0551F59F05F3F71F04795880F97FB991F90
S11303F061F09F3F79F0879508951216130614064D
S1130400551FF2CF4695F1DF08C0161617061806D9
S1130410991FF1CF86957105610508940895E894B4
S1130420BB2766277727CB0197F908950E942902F5
S11304300C94DC010E94CE0138F00E94D50120F01A
S1130440952311F00C94C5010C94CB0111240C9448
S113045010020E94ED0170F3959FC1F3950F50E0D7
S1130460551F629FF001729FBB27F00DB11D639F62
S1130470AA27F00DB11DAA1F649F6627B00DA11D08
S1130480661F829F2227B00DA11D621F739FB00DAE
S1130490A11D621F839FA00D611D221F749F33271E
S11304A0A00D611D231F849F600D211D822F762FB7
S11304B06A2F11249F5750409AF0F1F088234AF094
S11304C0EE0FFF1FBB1F661F771F881F9150504000
S11304D0A9F79E3F510580F00C94C5010C941002BD
S11304E05F3FE4F3983ED4F3869577956795B79587
S11304F0F795E7959F5FC1F7FE2B880F911D9695A1
S10D0500879597F90895F894FFCF4A
S9030000FC
